{
  "contractName": "Crowdfunding",
  "abi": [
    {
      "anonymous": false,
      "inputs": [
        {
          "indexed": false,
          "internalType": "uint256",
          "name": "id",
          "type": "uint256"
        },
        {
          "indexed": false,
          "internalType": "string",
          "name": "name",
          "type": "string"
        },
        {
          "indexed": false,
          "internalType": "string",
          "name": "description",
          "type": "string"
        },
        {
          "indexed": false,
          "internalType": "uint256",
          "name": "deadline",
          "type": "uint256"
        },
        {
          "indexed": false,
          "internalType": "address",
          "name": "creator",
          "type": "address"
        }
      ],
      "name": "CampaignCreated",
      "type": "event"
    },
    {
      "anonymous": false,
      "inputs": [
        {
          "indexed": false,
          "internalType": "uint256",
          "name": "campaignId",
          "type": "uint256"
        },
        {
          "indexed": false,
          "internalType": "address",
          "name": "contributor",
          "type": "address"
        },
        {
          "indexed": false,
          "internalType": "uint256",
          "name": "amount",
          "type": "uint256"
        }
      ],
      "name": "ContributionReceived",
      "type": "event"
    },
    {
      "inputs": [
        {
          "internalType": "uint256",
          "name": "",
          "type": "uint256"
        }
      ],
      "name": "campaigns",
      "outputs": [
        {
          "internalType": "uint256",
          "name": "id",
          "type": "uint256"
        },
        {
          "internalType": "string",
          "name": "name",
          "type": "string"
        },
        {
          "internalType": "string",
          "name": "description",
          "type": "string"
        },
        {
          "internalType": "uint256",
          "name": "deadline",
          "type": "uint256"
        },
        {
          "internalType": "uint256",
          "name": "fundsRaised",
          "type": "uint256"
        },
        {
          "internalType": "address payable",
          "name": "creator",
          "type": "address"
        },
        {
          "internalType": "bool",
          "name": "active",
          "type": "bool"
        }
      ],
      "stateMutability": "view",
      "type": "function",
      "constant": true
    },
    {
      "inputs": [],
      "name": "totalCampaigns",
      "outputs": [
        {
          "internalType": "uint256",
          "name": "",
          "type": "uint256"
        }
      ],
      "stateMutability": "view",
      "type": "function",
      "constant": true
    },
    {
      "inputs": [
        {
          "internalType": "string",
          "name": "name",
          "type": "string"
        },
        {
          "internalType": "string",
          "name": "description",
          "type": "string"
        },
        {
          "internalType": "uint256",
          "name": "duration",
          "type": "uint256"
        }
      ],
      "name": "createCampaign",
      "outputs": [],
      "stateMutability": "nonpayable",
      "type": "function"
    },
    {
      "inputs": [
        {
          "internalType": "uint256",
          "name": "campaignId",
          "type": "uint256"
        }
      ],
      "name": "contribute",
      "outputs": [],
      "stateMutability": "payable",
      "type": "function",
      "payable": true
    },
    {
      "inputs": [
        {
          "internalType": "uint256",
          "name": "campaignId",
          "type": "uint256"
        }
      ],
      "name": "checkCampaignStatus",
      "outputs": [
        {
          "internalType": "bool",
          "name": "",
          "type": "bool"
        }
      ],
      "stateMutability": "view",
      "type": "function",
      "constant": true
    },
    {
      "inputs": [
        {
          "internalType": "uint256",
          "name": "campaignId",
          "type": "uint256"
        }
      ],
      "name": "getCampaignDetails",
      "outputs": [
        {
          "internalType": "string",
          "name": "name",
          "type": "string"
        },
        {
          "internalType": "string",
          "name": "description",
          "type": "string"
        },
        {
          "internalType": "uint256",
          "name": "deadline",
          "type": "uint256"
        },
        {
          "internalType": "uint256",
          "name": "fundsRaised",
          "type": "uint256"
        },
        {
          "internalType": "address",
          "name": "creator",
          "type": "address"
        },
        {
          "internalType": "bool",
          "name": "active",
          "type": "bool"
        }
      ],
      "stateMutability": "view",
      "type": "function",
      "constant": true
    },
    {
      "inputs": [
        {
          "internalType": "uint256",
          "name": "campaignId",
          "type": "uint256"
        }
      ],
      "name": "endCampaign",
      "outputs": [],
      "stateMutability": "nonpayable",
      "type": "function"
    }
  ],
  "bytecode": "0x608060405234801561001057600080fd5b506116a0806100206000396000f3fe6080604052600436106100705760003560e01c8063c1cbbca71161004e578063c1cbbca714610120578063d993de621461013c578063dd0408ae1461017e578063ffa56a57146101a757610070565b806302932f5614610075578063141961bc146100a057806370041d10146100e3575b600080fd5b34801561008157600080fd5b5061008a6101d0565b6040516100979190610a15565b60405180910390f35b3480156100ac57600080fd5b506100c760048036038101906100c29190610a70565b6101d6565b6040516100da9796959493929190610b89565b60405180910390f35b3480156100ef57600080fd5b5061010a60048036038101906101059190610a70565b610355565b6040516101179190610c06565b60405180910390f35b61013a60048036038101906101359190610a70565b610393565b005b34801561014857600080fd5b50610163600480360381019061015e9190610a70565b6105d1565b60405161017596959493929190610c42565b60405180910390f35b34801561018a57600080fd5b506101a560048036038101906101a09190610a70565b610767565b005b3480156101b357600080fd5b506101ce60048036038101906101c99190610de6565b610876565b005b60015481565b60006020528060005260406000206000915090508060000154908060010180546101ff90610ea0565b80601f016020809104026020016040519081016040528092919081815260200182805461022b90610ea0565b80156102785780601f1061024d57610100808354040283529160200191610278565b820191906000526020600020905b81548152906001019060200180831161025b57829003601f168201915b50505050509080600201805461028d90610ea0565b80601f01602080910402602001604051908101604052809291908181526020018280546102b990610ea0565b80156103065780601f106102db57610100808354040283529160200191610306565b820191906000526020600020905b8154815290600101906020018083116102e957829003601f168201915b5050505050908060030154908060040154908060050160009054906101000a900473ffffffffffffffffffffffffffffffffffffffff16908060050160149054906101000a900460ff16905087565b6000806000808481526020019081526020016000209050806003015442118061038b575068056bc75e2d63100000816004015410155b915050919050565b62030d405a10156103d9576040517f08c379a00000000000000000000000000000000000000000000000000000000081526004016103d090610f43565b60405180910390fd5b3447101561041c576040517f08c379a000000000000000000000000000000000000000000000000000000000815260040161041390610fd5565b60405180910390fd5b600080600083815260200190815260200160002090508060050160149054906101000a900460ff16610483576040517f08c379a000000000000000000000000000000000000000000000000000000000815260040161047a90611067565b60405180910390fd5b806003015442106104c9576040517f08c379a00000000000000000000000000000000000000000000000000000000081526004016104c0906110d3565b60405180910390fd5b6000341161050c576040517f08c379a000000000000000000000000000000000000000000000000000000000815260040161050390611165565b60405180910390fd5b3481600401600082825461052091906111b4565b925050819055508060050160009054906101000a900473ffffffffffffffffffffffffffffffffffffffff1673ffffffffffffffffffffffffffffffffffffffff166108fc349081150290604051600060405180830381858888f19350505050158015610591573d6000803e3d6000fd5b507f865c884d49c8cecaef108efb20f7d282f26c0f9b0d24dd48e5592d4e02ec658d8233346040516105c5939291906111e8565b60405180910390a15050565b606080600080600080600080600089815260200190815260200160002090508060010181600201826003015483600401548460050160009054906101000a900473ffffffffffffffffffffffffffffffffffffffff168560050160149054906101000a900460ff1685805461064590610ea0565b80601f016020809104026020016040519081016040528092919081815260200182805461067190610ea0565b80156106be5780601f10610693576101008083540402835291602001916106be565b820191906000526020600020905b8154815290600101906020018083116106a157829003601f168201915b505050505095508480546106d190610ea0565b80601f01602080910402602001604051908101604052809291908181526020018280546106fd90610ea0565b801561074a5780601f1061071f5761010080835404028352916020019161074a565b820191906000526020600020905b81548152906001019060200180831161072d57829003601f168201915b505050505094509650965096509650965096505091939550919395565b600080600083815260200190815260200160002090508060050160009054906101000a900473ffffffffffffffffffffffffffffffffffffffff1673ffffffffffffffffffffffffffffffffffffffff163373ffffffffffffffffffffffffffffffffffffffff161461080f576040517f08c379a000000000000000000000000000000000000000000000000000000000815260040161080690611291565b60405180910390fd5b80600301544211610855576040517f08c379a000000000000000000000000000000000000000000000000000000000815260040161084c90611323565b60405180910390fd5b60008160050160146101000a81548160ff0219169083151502179055505050565b6000814261088491906111b4565b90506040518060e001604052806001548152602001858152602001848152602001828152602001600081526020013373ffffffffffffffffffffffffffffffffffffffff16815260200160011515815250600080600154815260200190815260200160002060008201518160000155602082015181600101908161090891906114ef565b50604082015181600201908161091e91906114ef565b50606082015181600301556080820151816004015560a08201518160050160006101000a81548173ffffffffffffffffffffffffffffffffffffffff021916908373ffffffffffffffffffffffffffffffffffffffff16021790555060c08201518160050160146101000a81548160ff0219169083151502179055509050507f5625a6c5db4545709e44f0b65b1d3e026dccf5419a55818c7f6be6d439006fbe600154858584336040516109d69594939291906115c1565b60405180910390a1600160008154809291906109f190611622565b919050555050505050565b6000819050919050565b610a0f816109fc565b82525050565b6000602082019050610a2a6000830184610a06565b92915050565b6000604051905090565b600080fd5b600080fd5b610a4d816109fc565b8114610a5857600080fd5b50565b600081359050610a6a81610a44565b92915050565b600060208284031215610a8657610a85610a3a565b5b6000610a9484828501610a5b565b91505092915050565b600081519050919050565b600082825260208201905092915050565b60005b83811015610ad7578082015181840152602081019050610abc565b60008484015250505050565b6000601f19601f8301169050919050565b6000610aff82610a9d565b610b098185610aa8565b9350610b19818560208601610ab9565b610b2281610ae3565b840191505092915050565b600073ffffffffffffffffffffffffffffffffffffffff82169050919050565b6000610b5882610b2d565b9050919050565b610b6881610b4d565b82525050565b60008115159050919050565b610b8381610b6e565b82525050565b600060e082019050610b9e600083018a610a06565b8181036020830152610bb08189610af4565b90508181036040830152610bc48188610af4565b9050610bd36060830187610a06565b610be06080830186610a06565b610bed60a0830185610b5f565b610bfa60c0830184610b7a565b98975050505050505050565b6000602082019050610c1b6000830184610b7a565b92915050565b6000610c2c82610b2d565b9050919050565b610c3c81610c21565b82525050565b600060c0820190508181036000830152610c5c8189610af4565b90508181036020830152610c708188610af4565b9050610c7f6040830187610a06565b610c8c6060830186610a06565b610c996080830185610c33565b610ca660a0830184610b7a565b979650505050505050565b600080fd5b600080fd5b7f4e487b7100000000000000000000000000000000000000000000000000000000600052604160045260246000fd5b610cf382610ae3565b810181811067ffffffffffffffff82111715610d1257610d11610cbb565b5b80604052505050565b6000610d25610a30565b9050610d318282610cea565b919050565b600067ffffffffffffffff821115610d5157610d50610cbb565b5b610d5a82610ae3565b9050602081019050919050565b82818337600083830152505050565b6000610d89610d8484610d36565b610d1b565b905082815260208101848484011115610da557610da4610cb6565b5b610db0848285610d67565b509392505050565b600082601f830112610dcd57610dcc610cb1565b5b8135610ddd848260208601610d76565b91505092915050565b600080600060608486031215610dff57610dfe610a3a565b5b600084013567ffffffffffffffff811115610e1d57610e1c610a3f565b5b610e2986828701610db8565b935050602084013567ffffffffffffffff811115610e4a57610e49610a3f565b5b610e5686828701610db8565b9250506040610e6786828701610a5b565b9150509250925092565b7f4e487b7100000000000000000000000000000000000000000000000000000000600052602260045260246000fd5b60006002820490506001821680610eb857607f821691505b602082108103610ecb57610eca610e71565b5b50919050565b7f496e73756666696369656e742067617320666f7220746865207472616e73616360008201527f74696f6e2e000000000000000000000000000000000000000000000000000000602082015250565b6000610f2d602583610aa8565b9150610f3882610ed1565b604082019050919050565b60006020820190508181036000830152610f5c81610f20565b9050919050565b7f496e73756666696369656e742066756e647320666f722074686520636f6e747260008201527f69627574696f6e2e000000000000000000000000000000000000000000000000602082015250565b6000610fbf602883610aa8565b9150610fca82610f63565b604082019050919050565b60006020820190508181036000830152610fee81610fb2565b9050919050565b7f546869732063616d706169676e206973206e6f206c6f6e67657220616374697660008201527f652e000000000000000000000000000000000000000000000000000000000000602082015250565b6000611051602283610aa8565b915061105c82610ff5565b604082019050919050565b6000602082019050818103600083015261108081611044565b9050919050565b7f43616d706169676e2068617320656e6465642e00000000000000000000000000600082015250565b60006110bd601383610aa8565b91506110c882611087565b602082019050919050565b600060208201905081810360008301526110ec816110b0565b9050919050565b7f436f6e747269627574696f6e206d75737420626520677265617465722074686160008201527f6e20302e00000000000000000000000000000000000000000000000000000000602082015250565b600061114f602483610aa8565b915061115a826110f3565b604082019050919050565b6000602082019050818103600083015261117e81611142565b9050919050565b7f4e487b7100000000000000000000000000000000000000000000000000000000600052601160045260246000fd5b60006111bf826109fc565b91506111ca836109fc565b92508282019050808211156111e2576111e1611185565b5b92915050565b60006060820190506111fd6000830186610a06565b61120a6020830185610c33565b6112176040830184610a06565b949350505050565b7f4f6e6c79207468652063616d706169676e2063726561746f722063616e20656e60008201527f64207468652063616d706169676e2e0000000000000000000000000000000000602082015250565b600061127b602f83610aa8565b91506112868261121f565b604082019050919050565b600060208201905081810360008301526112aa8161126e565b9050919050565b7f43616d706169676e2063616e6e6f7420626520656e646564206265666f72652060008201527f74686520646561646c696e652e00000000000000000000000000000000000000602082015250565b600061130d602d83610aa8565b9150611318826112b1565b604082019050919050565b6000602082019050818103600083015261133c81611300565b9050919050565b60008190508160005260206000209050919050565b60006020601f8301049050919050565b600082821b905092915050565b6000600883026113a57fffffffffffffffffffffffffffffffffffffffffffffffffffffffffffffffff82611368565b6113af8683611368565b95508019841693508086168417925050509392505050565b6000819050919050565b60006113ec6113e76113e2846109fc565b6113c7565b6109fc565b9050919050565b6000819050919050565b611406836113d1565b61141a611412826113f3565b848454611375565b825550505050565b600090565b61142f611422565b61143a8184846113fd565b505050565b5b8181101561145e57611453600082611427565b600181019050611440565b5050565b601f8211156114a35761147481611343565b61147d84611358565b8101602085101561148c578190505b6114a061149885611358565b83018261143f565b50505b505050565b600082821c905092915050565b60006114c6600019846008026114a8565b1980831691505092915050565b60006114df83836114b5565b9150826002028217905092915050565b6114f882610a9d565b67ffffffffffffffff81111561151157611510610cbb565b5b61151b8254610ea0565b611526828285611462565b600060209050601f8311600181146115595760008415611547578287015190505b61155185826114d3565b8655506115b9565b601f19841661156786611343565b60005b8281101561158f5784890151825560018201915060208501945060208101905061156a565b868310156115ac57848901516115a8601f8916826114b5565b8355505b6001600288020188555050505b505050505050565b600060a0820190506115d66000830188610a06565b81810360208301526115e88187610af4565b905081810360408301526115fc8186610af4565b905061160b6060830185610a06565b6116186080830184610c33565b9695505050505050565b600061162d826109fc565b91507fffffffffffffffffffffffffffffffffffffffffffffffffffffffffffffffff820361165f5761165e611185565b5b60018201905091905056fea2646970667358221220f87a71404d9a1bbb0e136b47237c909e7d4be581bf79cf6a8a8212c0fd9f272c64736f6c63430008110033",
  "immutableReferences": {},
  "source": "// SPDX-License-Identifier: MIT\npragma solidity ^0.8.0;\n\ncontract Crowdfunding {\n    \n    struct Campaign {\n        uint id;\n        string name;\n        string description;\n        uint deadline;\n        uint fundsRaised;\n        address payable creator;\n        bool active;\n    }\n\n    mapping(uint => Campaign) public campaigns;\n    uint public totalCampaigns;\n    \n    event CampaignCreated(uint id, string name, string description, uint deadline, address creator);\n    event ContributionReceived(uint campaignId, address contributor, uint amount);\n\n    function createCampaign(\n        string memory name,\n        string memory description,\n        uint duration \n    ) public {\n        uint deadline = block.timestamp + duration; \n        campaigns[totalCampaigns] = Campaign({\n            id: totalCampaigns,\n            name: name,\n            description: description,\n            deadline: deadline,\n            fundsRaised: 0,\n            creator: payable(msg.sender),\n            active: true\n        });\n\n        emit CampaignCreated(totalCampaigns, name, description, deadline, msg.sender);\n        totalCampaigns++;\n    }\n\n    function contribute(uint campaignId) public payable {\n        require(gasleft() >= 200000, \"Insufficient gas for the transaction.\"); // Set a sufficient gas limit\n        require(address(this).balance >= msg.value, \"Insufficient funds for the contribution.\"); // Check if the contributor has enough funds\n\n        Campaign storage campaign = campaigns[campaignId];\n\n        require(campaign.active, \"This campaign is no longer active.\");\n        require(block.timestamp < campaign.deadline, \"Campaign has ended.\");\n        require(msg.value > 0, \"Contribution must be greater than 0.\");\n\n        campaign.fundsRaised += msg.value;\n        campaign.creator.transfer(msg.value); // Transfer the contribution to the campaign creator\n\n        emit ContributionReceived(campaignId, msg.sender, msg.value);\n    }\n    function checkCampaignStatus(uint campaignId) public view returns (bool) {\n        Campaign storage campaign = campaigns[campaignId];\n        return block.timestamp > campaign.deadline || campaign.fundsRaised >= 100 ether; \n    }\n\n    function getCampaignDetails(uint campaignId) public view returns (\n        string memory name,\n        string memory description,\n        uint deadline,\n        uint fundsRaised,\n        address creator,\n        bool active\n    ) {\n        Campaign storage campaign = campaigns[campaignId];\n        return (\n            campaign.name,\n            campaign.description,\n            campaign.deadline,\n            campaign.fundsRaised,\n            campaign.creator,\n            campaign.active\n        );\n    }\n    \n    function endCampaign(uint campaignId) public {\n        Campaign storage campaign = campaigns[campaignId];\n        require(msg.sender == campaign.creator, \"Only the campaign creator can end the campaign.\");\n        require(block.timestamp > campaign.deadline, \"Campaign cannot be ended before the deadline.\");\n\n        campaign.active = false;\n    }\n}",
  "sourcePath": "C:\\Users\\DELL\\Desktop\\bchain\\crowdfunding\\contracts\\crowd.sol",
  "compiler": {
    "name": "solc",
    "version": "0.8.17+commit.8df45f5f.Emscripten.clang"
  },
  "schemaVersion": "3.4.16",
  "updatedAt": "2024-12-27T13:21:31.484Z",
  "networkType": "ethereum",
  "devdoc": {
    "kind": "dev",
    "methods": {},
    "version": 1
  },
  "userdoc": {
    "kind": "user",
    "methods": {},
    "version": 1
  }
}